:020000040800F2
:10000000F83300205901000895850008796F000831
:1000100000000000000000000000000000000000E0
:100020000000000000000000000000002593000810
:10003000000000000000000035860008B99A0008A2
:100040006B01000800000000A98900086B0100088E
:100050006B010008692000086B010008B52000084A
:1000600000000000C51C00086B0100086B010008BF
:10007000D91400086B0100086B01000800000000A3
:100080005D9D00086B0100086B0100086B01000812
:100090006B0100086B0100086B010008B56F0008D8
:1000A0006B0100082D9000086B0100086B0100082F
:1000B00059BE00086B01000800F002F800F03CF89F
:1000C0000CA030C8083824182D18A246671EAB466D
:1000D00054465D46AC4201D100F02EF87E460F3EFC
:1000E0000FCCB6460126334200D0FB1AA246AB46DF
:1000F000334318473CEB00005CEB00000023002476
:1001000000250026103A01D378C1FBD8520700D34E
:1001100030C100D50B60704710B5642902D100F0E2
:10012000D9F810BD002010BD1FB50098019900F04E
:10013000AEFF1FBD10B510BD01F0F7F81146FFF777
:10014000F3FF0CF0EFFE01F00FF903B4FFF7F2FF3D
:1001500003BC01F06FF900000748804707480047DB
:10016000FEE7FEE7FEE7FEE7FEE7FEE70448054997
:10017000054A064B70470000599D0008B900000869
:10018000F81B0020F8330020F8210020F82100207F
:1001900070B5064600F05EFF056830460B30C408B7
:1001A000E400B44201D8002070BD68682A460028E7
:1001B00018D00168A14211D30B46214608318B4269
:1001C00008D3436801194B6003681B1B0B60516027
:1001D000046001E041685160001D70BD0246406846
:1001E0000028E6D12146284600F03CFF0028DCD15B
:1001F00070BD70B50446051F00F02CFF0068002C90
:100200001AD0446801E020466468002C01D0AC425A
:10021000F9D301680A18AA4204D12A680546891848
:10022000016000E0456028684119A14205D161687C
:10023000696021684018286070BD6C6070BD000066
:100240000FB41CB5074B06AA7B446946009005987D
:1002500000F0AFFF0020694600F0BEFF1CBC08BCE8
:1002600004B018478D0F0000F8B50E460446002074
:1002700020622046E1688847002829D0252802D03E
:100280006268A16820E0E1682046002788470500F1
:100290001ED028464138192802D80127FF022035F0
:1002A0003246204627602946FFF736FF002808D04F
:1002B000012804D0F61DF608F6000836D9E7361DE9
:1002C000D7E762682846A1689047206A401CCFE7BC
:1002D000206AF8BDF7B5002575291068009914A6A5
:1002E00011D0C046C046002802DA404211A608E0FC
:1002F000009909688A0701D50FA602E0490704D5CD
:100300000EA6012501E0C046C046009F0024243708
:1003100004E000F066FF30313955641C0028F8D144
:100320002B4632462146009800F0E5FEFEBD000057
:10033000000000002D0000002B0000002000000045
:10034000D2B210B513029A1813049A1800F00EF8DE
:1003500010BD01E004C0091F0429FBD28B0701D5A1
:100360000280801CC90700D00270704700290BD0A2
:10037000C30702D00270401C491E022904D3830720
:1003800002D50280801C891EE3E70022EEE70022EE
:10039000DFE70000F8B507460B46394619438907E1
:1003A00013D1164CE601042A0FD302CB0D1B8D434B
:1003B000354202D102C0121FF5E7CBB20370401CD8
:1003C000521E002B13D0090AF7E7002A14D019781F
:1003D000521E5B1C0170401C002908D0002A0BD063
:1003E0001978521E5B1C0170401C0029EDD1002AB7
:1003F00002D01146FFF7C9FF3846F8BD01010101DF
:10040000002203098B422CD3030A8B4211D3002311
:100410009C464EE003460B433CD4002243088B42EB
:1004200031D303098B421CD3030A8B4201D3944678
:100430003FE0C3098B4201D3CB01C01A524183096B
:100440008B4201D38B01C01A524143098B4201D325
:100450004B01C01A524103098B4201D30B01C01A50
:100460005241C3088B4201D3CB00C01A52418308CA
:100470008B4201D38B00C01A524143088B4201D3F7
:100480004B00C01A5241411A00D201465241104657
:1004900070475DE0CA0F00D04942031000D34042CC
:1004A000534000229C4603098B422DD3030A8B4202
:1004B00012D3FC22890112BA030A8B420CD38901A0
:1004C00092118B4208D3890192118B4204D3890186
:1004D0003AD0921100E08909C3098B4201D3CB01C4
:1004E000C01A524183098B4201D38B01C01A524179
:1004F00043098B4201D34B01C01A524103098B427D
:1005000001D30B01C01A5241C3088B4201D3CB0067
:10051000C01A524183088B4201D38B00C01A52414A
:10052000D9D243088B4201D34B00C01A5241411A21
:1005300000D20146634652415B10104601D340424F
:10054000002B00D54942704763465B1000D3404200
:1005500001B50020C046C04602BD704770477047D5
:10056000F0B50C46871A9C410D46861A9D4103D270
:10057000C01BA141D21963410D0D1F0DC94EEC1BCB
:10058000AE435CD07F057F0D0026002F51D02D0596
:10059000AC46A943DD020123ED0A1B051D432023C0
:1005A0001B1B24D41746E740381871412F46E740FB
:1005B000CC199D402818314661410C0D27D161446A
:1005C0009A4013D50023401C594152000ED14008D7
:1005D000400001224B005205D34207D305204007BB
:1005E000C14201D5B04900E0B0493046F0BD6B00D2
:1005F000002A00D001229A181F23203C1B1B01D582
:10060000002302E0E540281871410C0DD7D00124E9
:1006100024050919C407CD0740084908E40F2843F9
:100620006144002CD5D00024401C61419A40D0D1B7
:10063000CDE76A05520DD9D1C90FC907D5E79C4D41
:100640004E00002801D0012400E0002434195F008E
:10065000002A01D0012600E00026BE19954FAC42C9
:100660000CD8AE420AD8B44206D001256D05EC4242
:10067000BCD010461946F0BD9942FCD00020394646
:10068000F0BDF0B51FB40C460F46811A9F412546B8
:10069000861A9D4106D20125ED076F40401ABC41E4
:1006A00052187B41210D1E0D8D1BAC467D4D8D4397
:1006B0007ED075056D0D7CD00D05AE46AC431B0399
:1006C0001B0B794D52429D41202366469B1B14D340
:1006D0001746F740381800260090744160462F46B0
:1006E0000741E41900989D402818664116D47146C8
:1006F00071189A4025D5012320E093182A466A41B3
:100700005200002B00D0521C1E23203E9B1B002BAE
:1007100061DD3541EE1728186641E8D500187641AD
:100720005B1C9A4000D3401C4B05F3181524E34092
:1007300010D3002B52D071467118D30FC01802D3BA
:10074000491C05B0F0BD0123DB079A42F9D14008EE
:100750004000F6E701225205B21801D1002853D01B
:100760000123CC0ADB029943891E002A08D1020C1E
:1007700003D0020C0004103902E0024600202039A8
:100780000023550B05D112020823550B01D152014C
:100790000D23550C01D112011B1DD50C01D1920066
:1007A0009B1C150D01D152005B1C2025EE1A01E0A7
:1007B0002CE022E00546F54015439840CA1AE107AF
:1007C00069181305C918002ABBDA03204007081866
:1007D000C10FC9070FE071466118B2E7F107400881
:1007E0000843711071444A000CD001235B059A4202
:1007F000A7D2C90FC9070020A3E74905490D26D193
:10080000002001E00028F4D100219AE7284D66007D
:10081000002801D0012100E0002171185F00002AAA
:1008200001D0012600E00026BE19224FA94210D8AF
:10083000AE420ED8B14208D001256D05E94206D07E
:100840001946A802414010467BE79C4201D0214650
:1008500077E70020394674E710B50C465C4005D5B3
:100860000124E4076340FFF70CFF10BDFFF778FE9B
:1008700010BD30B40C465C4004D50124E40763404D
:1008800030BC6DE630BCFCE670B50124E407614085
:100890000D465D4002D4FFF763FE70BD6340FFF775
:1008A000F0FE70BDFF0700000000F0FF0000F07FC9
:1008B0000000E0FF0000F87FF0B5F94D0C091E09BB
:1008C0002C402E402F468BB0A7437DD0B543FCD0A3
:1008D000002E7AD0002CFCD00D465D40ED0F254354
:1008E000AC1BFF25AD0464190894C502440DC90270
:1008F0002143500DDC0204430120C007014304439F
:10090000D2020191200C110C00958C460104234663
:100910008B430A9161460904E24D8A430991010A19
:100920007D4449198039097805464D4301266D18E3
:10093000F605751B6943C90C640B891C4C4364188C
:10094000B5012C1B250C2E04B4434C434D43210C04
:10095000691889090591009DE90701D00121C9079E
:1009600004912C4601996708CD072F434C08059D3B
:10097000E10B4D432D0C29466646754302950D4605
:1009800045432E46029D7D1BB44100950D465D43B7
:1009900001942C0C2F040D465543AE462D0C3D43BF
:1009A000029503947546049C2D04641B049406D29E
:1009B000029C039D641C002675410395029401ACC2
:1009C00070CC009F7D1B01E03EE162E1B44109046F
:1009D0000095079101940599A4086143090C0C4600
:1009E0004443650BE7040C4666467443A646640B15
:1009F0003C43039502947446049DE4042C1B049428
:100A000006D2029C039D641C002675410395029446
:100A100001AC70CC009F7D1BB44101940C465C433B
:100A20000095650FE7000C465443A646640F3C430F
:100A3000039502947446049DE4002C1B049406D292
:100A4000029C039D641C002675410395029401AC31
:100A500070CC009F7D1BB441AE09AF06049DC90058
:100A6000AD092F43049DA406AD060495079D3443AC
:100A700069180791059DE10B4D432D0C29466646EB
:100A8000754302950D4645432E46029D7D1BB4419C
:100A900000950D465D4301942C0C2F040D465543E3
:100AA000AE462D0C3D43029503947546049C2D04DF
:100AB000641B049406D2029C039D641C00267541AD
:100AC0000395029401AC70CC009F7D1BB44101944E
:100AD0008C050694079C890A611800950791019C72
:100AE0000599A4086143090C0D464543680BEF04C2
:100AF0000D46644665436C0B3C43049FED047D1B2F
:100B0000AC4602D20025641C6841009E019D371B43
:100B100085410846584301950C46460FC50054438D
:100B2000600F28436546E4002C1B02D20025401CC0
:100B30006E41019D3F1AB5412846BD0980062843F4
:100B40008446A009BF064E020699A40676180743FC
:100B5000079D002068410A99079019430020099BCE
:100B600000906046FF1913434041E20F64003A438E
:100B7000A4460446D71A8C41A04203D90120009014
:100B800020463A46C70F941840416246D20F22438E
:100B9000644664000494009CBE466400D71AA446D0
:100BA000044602978C417746002F01D1A04204D918
:100BB0006046401C8446029A2046C40FA6469418FC
:100BC0004041049A0546D20F224364466400D31A7A
:100BD0008D417146002901D1A84202D928461A4602
:100BE000641C10430122002800D01643610200203B
:100BF000079B891904465C410223002C02DB49183B
:100C000013466441089DCE0A2D145D194B056705F6
:100C1000E10A2C050D1908993E43C9076940002BCC
:100C200008D0934006D30022761C5141002B01D1FD
:100C3000760876001C4A002D43DB154241D0AA43BA
:100C40003FD030460BB0F0BD06180D464D41174C55
:100C50007642AC411AD395181C465C41134A6D424A
:100C6000A24113D3012252054C00D4420AD15C00A8
:100C7000D4420BD04B4002D592021143E2E7490027
:100C80004908DFE75940C90FC90718E000200849A3
:100C9000D8E7054801420DD10342F7D0F2E7000042
:100CA0000000FF078CE200000000F07F0000E0FF82
:100CB0000000F87F114859400143C0124140002014
:100CC000C0E70123089A9B069A4205DC03225207DB
:100CD0008918C90FC907B5E7052252078918074ABD
:100CE0001143D2125140ADE770B515461C4602467D
:100CF0000B4628462146FFF7DFFD70BDFFFFFF7F53
:100D00001F22030C02D10F22000402D0030E03D0D5
:100D100004E00020014670470002083A030F01D1A9
:100D20000001121F830F01D18000921E002801DBF9
:100D30004000521E120551184205C01241181046BB
:100D40007047C10FC90700D04042012292071143EA
:100D5000D6E701218907D3E7F0B58B4C0F0925466B
:100D600089B0BD437BD01D092646AE43FAD00E465E
:100D70005E402740F60F3E43254071D024012142BA
:100D8000FBD0FF24AD19A4042D1B039501252D05CF
:100D9000DB02DB0AC9022B43C90A29431E010901F0
:100DA000040F130F050121431701880B82039143A0
:100DB0002D098C46A90B1E438A039543B30B9A0356
:100DC00096433F09BA0B9403A74302962E467E43EF
:100DD0000497B6464E19D7190C4601965443059709
:100DE0007E43371B7646BF1B3601B646BE0B36190F
:100DF00000967646BC043719009C01D3641C00940D
:100E00006400002F01D001263443029E049F7543E5
:100E100066467E430496760034196E0034190094B9
:100E2000029C019E1C196643751BAE4606946546DE
:100E30004519059C05956C43594375460891691AF7
:100E40000191049E01465143A41B0491611A009C28
:100E50000791E10605D061090122114302E072E029
:100E60006EE06109089D00272C0A2D066918049D73
:100E70007C412A0A2D066918019D6241AC0DAD0224
:100E80006D185441079A910D920255196141029AC9
:100E9000644658435443069B059A5A43121A131B3F
:100EA0009A0E9B015B187A41010B0005C318514152
:100EB000220A200644195A419A4200D2491C0120B4
:100EC0004002814203D315230226F64302E0142395
:100ED0000326F6432020C51AA9401746AF40DA4042
:100EE0000A4320460399D84009147318190551186C
:100EF000039A3843D2075140AC4009D001229440B4
:100F000006D30022401C5141002C01D14008400072
:100F10001E4A934212D3012203989206904207DBA5
:100F20000520400709181A480143C012414004E057
:100F3000032040070818C10FC907002009B0F0BD01
:100F40000020F107FAE705180C464C4111486D42A4
:100F5000A04115D394181A465A410E486442904154
:100F60000ED301204A004005824209D35A00824232
:100F700006D35940C90F084AC90700201143DDE7CD
:100F800000200649DAE700000000FF07FE07000026
:100F9000FFFFFF7F0000E0FF0000F07F0000F87F10
:100FA0000121C9050123411842001B06D3185B0E1D
:100FB0000AD0C1100722D206891840075242D142F6
:100FC00001D5520089187047090208D50146002A48
:100FD00003D0C10FC9070020704710467047420276
:100FE00002D0002002497047072109050143F4E7B8
:100FF0000000F87F1F22030C02D10F2200041CD036
:10100000030E01D10002083A030F01D10001121FA3
:10101000830F01D18000921E002801DB4000521E88
:10102000D2055118021251181922904004D3491CBC
:10103000002801D14908490008467047C10FC90777
:1010400000D04042012292071143D3E701218907D2
:10105000D0E7000000487047A01B00207047704791
:101060007047704738B504460A4600206946C046B6
:10107000C046002805D002462046009900F012F92B
:10108000012038BD10B5012000F026F910BDF8B5DB
:10109000C046C046054600200C461020C046064605
:1010A000A819A0420DD9324669460020C046C04664
:1010B000070001D100F010F90098A04200D00546C9
:1010C000C419FFF7C7FFF61D07460560F008C0000A
:1010D0004619284600F008F8B44204D03146386872
:1010E000A21B00F0DFF8F8BD0021016041608060C4
:1010F000704710207047FFB504460D4681B024307C
:1011000000902168880604D51022E069914321608F
:1011100000E00120A84201DD471B00E00027049801
:10112000A1697A191018081AA0612078C00602D4A3
:101130002046C046C046002608E003986268A168C1
:10114000805D9047206A401C761C2062049886428D
:10115000F3DB2078C0060AD52046C046C04606E02C
:101160006268A16830209047206A401C206238469F
:101170007F1E0028F4DC07E000986268A168405DEB
:101180009047206A401C206228466D1E0028F3DC30
:101190002046C046C0462078000602D5022005B091
:1011A000F0BD0120FBE7000001694A1C02610878DC
:1011B000704700B58FB00291002105910549019358
:1011C00079440391114604906846FFF74DF80FB03B
:1011D00000BD0000E5FFFFFF0A681070521C0A60A6
:1011E000704701468008081A02091018020A1018F0
:1011F000020C1018C008820012185200891A01E06F
:10120000401C0A390A29FBD270470000F8B5224C6D
:101210004E00069DA6420AD8A64201D1002806D15A
:101220005E00A64203D8A6420AD1002A08D00D24A7
:10123000240425422CD02946002000F053F8F8BDA4
:101240000C461C430CD4994202D0EFF30080F8BD49
:10125000904202D0EFF30080F8BDEFF30080F8BDBC
:1012600009242407E5008B4206D0EFF30080A04359
:10127000591A06D2284304E0101A05D3EFF3008070
:10128000A04380F30088F8BDEFF30080A043F1E7AE
:10129000009500F03FF8F8BD0000E0FF00487047FF
:1012A000981B002010B50346406801E003464068E3
:1012B000002801D08842F9D31868C3188B4206D0A1
:1012C000CB1CD808C000001D411A521A0146081D47
:1012D0000A60FEF78EFF10BD10B500F053F800F065
:1012E0004BF810BDC80212D54803400F002804D0A7
:1012F000C803C043012188407047EFF3008000011C
:10130000000903210907084380F300887047002083
:101310007047000010B500200249029A00F05AF808
:1013200010BD00000000F87F70477546FFF7B6FF5C
:10133000AE46050069465346C008C000854618B051
:1013400020B5FEF713FF60BC00274908B64600260B
:10135000C0C5C0C5C0C5C0C5C0C5C0C5C0C5C0C565
:10136000403D49008D46704710B50446C046C04612
:101370002046FEF7EAFE10BD10B5002801D000F0AF
:1013800059F810BD10B5012805D0002103A000F0C8
:1013900057F8012010BD09A1F8E700005349475252
:1013A000544D454D3A204F7574206F662068656135
:1013B00070206D656D6F7279000000003A204865FD
:1013C0006170206D656D6F727920636F72727570D8
:1013D0007465640010B50C461107090F092904D083
:1013E0000A290AD008290CD104E011460820FFF789
:1013F00079FF06E0510606D501E0510601D501202E
:10140000C007214610BDD10607D501010909CC0846
:101410004907000E0006044309E0410F2002490776
:10142000000A0143200E00061D22D1410143084657
:10143000E7E7000001491820ABBEFEE726000200E6
:1014400070B505460C460A2000E06D1C00F012F84D
:10145000002D06D028780028F7D102E0641C00F0A7
:1014600009F8002C02D020780028F7D10A2000F0DB
:1014700001F870BD08B5694608700320ABBE08BD11
:1014800070B58C180578401C6B075B0F01D1037891
:10149000401C2A1106D10278401C03E00678401C4B
:1014A0000E70491C5B1EF9D12B0705D40023521E78
:1014B0000DD40B70491CFAE70378401CCB1A921C20
:1014C00003E01D780D70491C5B1C521EF9D5A1422A
:1014D000D8D3002070BD000010B5024801F03FFCD9
:1014E00010BD0000C802002070B50446206806F058
:1014F00086FB00282BD0206806F064FB002807D16B
:1015000020688168134A11401031816000BF00BF1C
:1015100002F03CFC054614E002F038FC401B0228B7
:101520000FD92068806804210840002809D0A06DE8
:1015300010210843A065E06D01210843E06501200A
:1015400070BD20688068042108400028E4D1002094
:10155000F6E70000E8FFFF7F70B50546AC6AA06DB6
:1015600050210840002831D1A06D012149020843D3
:10157000A065206806F049FB002823D0A07E002843
:1015800020D1206800680821084008281AD1206866
:1015900006F035FB00280DD1206840680C218843F7
:1015A00021684860A06DFF21013188430121084373
:1015B000A06507E0A06D20210843A065E06D012132
:1015C0000843E065204601F037FB0CE0A06D1021D8
:1015D0000840002803D0204601F0C0FB03E0206D46
:1015E000416B2846884770BD70B50546AC6AA06D52
:1015F00040210843A065E06D04210843E0652046D2
:1016000001F0ACFB70BD70B50446A56A284601F038
:1016100031FB70BD70B50446206806F0D3FA06466B
:10162000206806F0D5FA002837D0002E35D1206882
:10163000806805210840012806D1206806F0ACFA30
:1016400003202168086009E0A06D10210843A0650F
:10165000E06D01210843E065012070BD02F096FBBA
:10166000054614E002F092FB401B02280FD92068C7
:101670008068C007C00F002809D0A06D1021084362
:10168000A065E06D01210843E0650120E5E72068E1
:101690008068C007C00F0028E4D10020DDE700000B
:1016A00038B5044600200090206806F091FA002822
:1016B00058D1206880682C490840002809D0A06DC6
:1016C00010210843A065E06D01210843E065012079
:1016D00038BD206806F068FA244806F06DFA01214A
:1016E000C905084000280DD0214922480068FEF7AE
:1016F00087FE401C009002E00098401E0090009879
:101700000028F9D1607E01282CD002F03FFB05466D
:101710001FE0206806F05CFA002802D1206806F07D
:1017200043FA02F033FB401B022812D920680068FC
:10173000C007C00F012148404840002809D1A06DD2
:1017400010210843A065E06D01210843E0650120F8
:10175000BEE720680068C007C00F0121484048402C
:101760000028D6D00020B3E71700008008270140EA
:10177000400D030070000020F8B504460D461646E3
:101780000C20204080110443AD05AD0D6846047067
:10179000457001221103104802F0F1FA012002F015
:1017A00077F80022012109030B4802F0E8FA012032
:1017B00002F06EF8334602226946084804F0B2F996
:1017C0000746022002F064F801221103024802F0E9
:1017D000D6FA3846F8BD0000000400507C04002012
:1017E00010B50321142007F0E9FD10BD1FB500BF9F
:1017F0004A48C06B022108434849C8630846C06B89
:1018000002210840009000BF00BF00BF4348806B2A
:1018100001210843414988630846806BC007C00F17
:10182000009000BF00BF00221146092002F0B2FE66
:10183000092002F09DFE3A4801F066FB002802D024
:10184000374801F061FB374880680121890508436A
:101850003449886000200190029003903248019042
:1018600000200290039001A92D4801F033F80028D0
:1018700003D001A92A4801F02DF8294800F050FFB3
:1018800007F0A2F8002803D001202849087002E0E0
:1018900000202649087000F065F8254908700846C0
:1018A0000078002806D0012808D002280AD0032892
:1018B00010D10BE064201F4908600CE04B201D494B
:1018C000086008E032201B49086004E0192019492B
:1018D000086000E000BF00BF124880680121890550
:1018E0008843104988600E4801F0C6F9002802D0EC
:1018F0000B4801F0C1F9092002F01CFE0748806B7B
:1019000040084000054988630846C06B02218843AF
:101910000249C8630548007804B010BD00100240B9
:10192000C8020020002701408000001CCC000020DD
:10193000C0000020C400002010B50446052001F0BE
:10194000A7FF012396222146C32000F055FDFF206A
:101950002D3001F09DFF01200149087010BD0000ED
:101960000601002010B503229207234B2349086883
:1019700049680DF013F801D8032010BD0322920727
:101980001D4B1E49086849680DF03AF80AD2032237
:1019900052071B4B1949086849680CF0FFFF01D832
:1019A0000220EAE703225207154B144908684968E8
:1019B0000DF026F80AD205225207124B0F4908688B
:1019C00049680CF0EBFF01D80120D6E70522520749
:1019D0000C4B0A49086849680DF012F809D2002238
:1019E000094B0649086849680CF0D8FF01D8002067
:1019F000C3E700BFC1E70000CCCC1040B800002016
:101A0000666612409999134000001E40F7B50746DC
:101A100015460421052000F08FF880210A2007F0E8
:101A2000CDFC002405E0395D09200AF09BFA601C1A
:101A3000C4B201988442F6DB032101200AF092FA35
:101A4000FF2400BF052007F05FF80646601EC4B201
:101A5000002C03D0042030400028F3D0222007F0CF
:101A600053F82870212007F04FF86870FEBD000081
:101A700070B506460C461546012E06D0022E15D02E
:101A8000032E27D0042E40D135E0012C04D1294665
:101A900001200BF0F3FC05E0022C03D1002108200B
:101AA0000BF088FC00201F49087038E0012C04D19D
:101AB000294602200BF0E2FC08E0022C06D10120AE
:101AC00019490870012108200BF074FC0020174907
:101AD000087024E0012C04D1294605200BF0CEFC2F
:101AE00005E0022C03D1022108200BF063FC00204A
:101AF0000F49087013E0012C03D100210F200BF0D7
:101B0000BDFC00200B49087009E00020094908705D
:101B100004490870054908700549087000BF00BFF6
:101B200070BD00000C000020980200200D00002075
:101B30000E0000200F00002070B505460C46284618
:101B400006F0E2FF06463046A043014628460AF06A
:101B500009FA70BDFFB504460022FF2000232BE0E8
:101B600000250DE026780F78BE4201D1184601E02D
:101B7000FF2008E0561CF2B2491C641C6E1CF5B232
:101B8000099EB542EEDB00BFFF280ED00A9D012D55
:101B900002D0022D07D101E004B0F0BD0D78022D76
:101BA00000D1F9E700E000BF00BFA41A891A039D25
:101BB000491900225D1CEBB2029DAB42D0DB00BF95
:101BC000EAE7000010B504460748047001212046EA
:101BD00007F020FC002005490860022C02D10448CF
:101BE0000449086010BD00001C01002024010020F1
:101BF000581B000028010020F8B500BF2E490968D5
:101C00002E4A11400846032109050140090D09012A
:101C10000F2212040240120C11430904072212037E
:101C20000240120B12010F231B0203401B0A1A432E
:101C300012021143702202401209120103071B0F06
:101C40001A4311430F4600BF1B4949681C4A114003
:101C5000084630210140090909010207120F11430A
:101C60000904072252030240520B120611430122BB
:101C700012030240120B12010F231B0203401B0A26
:101C80001A43120211430F2212050240120D1201D3
:101C90000F231B0403401B0C1A4311430C46204620
:101CA0000AF07DFB044600200146384321430546E7
:101CB0000E4628463146F8BD002800407F7F3F0091
:101CC0003FFFFF0010B5024801F08CFC10BD000082
:101CD0002C03002070B50446206C80088000094960
:101CE000401860642178084608381421FEF788FB04
:101CF000054604488030A064E906C90E01208840EA
:101D0000E06470BD0008024002799106890E4A1E07
:101D10009200064BD2180265044A403242654A1EC0
:101D200093079B0F01229A40826570470009024089
:101D300070B5856CC46C6C60046D002C02D0456D70
:101D4000846D6C600C4C64681C26056C3540012663
:101D5000AE403443084D6C60046863608468102CA6
:101D600004D10468A2600468E16003E00468A16033
:101D70000468E26070BD00000000024010B501225E
:101D800011020520000701F0FAFF322001F080FD6A
:101D90000024012396221A49C32000F02DFB322093
:101DA00001F076FD00231A461946052000F04EFB8F
:101DB000642001F06DFD0AE0601CC4B200231A46E5
:101DC0001946052000F042FBFA2001F061FD0D48A4
:101DD0000079002801D0032CEEDB022C03DD01206A
:101DE00007F04AFB02E0032007F046FB012006490A
:101DF0000870002201020520000701F0C0FF10BD9D
:101E000003030000F500002006010020FFB585B0A7
:101E100006460C4600200490002501200390002077
:101E2000029027463748B84201D1012004907F1D17
:101E30000020019060E000200FE03178227891428C
:101E400002D10021039102E00121039108E0691C05
:101E5000CDB2641C761C411CC8B20E998842ECDBE2
:101E600000BF039800283CD10F98012802D0022817
:101E700035D10FE0207801280BD1641BFF222046CA
:101E80000899FEF75DFA012007F0B2FA002009B0C8
:101E9000F0BD25E02078022820D1641B002008E056
:101EA0003978022903D10299491C89B20291083775
:101EB000401C07998842F3D30298012802DC049859
:101EC000002809D0FF2220460899FEF739FA0120A0
:101ED00007F08EFA0020DAE72120D8E700E000BF03
:101EE00001E021200390761B641B0898241800252C
:101EF0000198401CC0B201900799019888429ADB72
:101F00000398C4E7D808002010B5044601239622A0
:101F10005049C32000F070FA322001F0B9FC0023D0
:101F20001A4619460C2000F091FA4B4800785528C3
:101F300049D14948C0784849887008460079C87036
:101F400008464079087108468078002803D1084681
:101F5000C078002803D040480079A04206D03D4810
:101F6000FFF7EAFC012007F087FA6FE0642001F038
:101F70008FFC394880788000374AD2788118002356
:101F80001A46042000F062FA3448FFF7D5FC03201B
:101F900007F072FA022C09D13148008800280EDDC2
:101FA0002F480088401E2E49088008E02C484088B1
:101FB000002804DD2A484088401E29494880012025
:101FC00007F016FA42E024480078F5283ED122486E
:101FD0008078002803D12048C078002803D01E480C
:101FE0000079A04206D01B48FFF7A6FC012007F0AD
:101FF00043FA2BE0642001F04BFC17488078800006
:10200000154AD278811800231A46042000F01EFADF
:102010001248FFF791FC032007F02EFA022C09D199
:102020000F48008800280EDD0D480088401E0C492E
:10203000088008E00A484088002804DD08484088F5
:10204000401E07494880012007F0D2F901200549C8
:10205000087010BD03030000F50000200505000016
:10206000D00000200601002010B500200E490870A5
:102070000E48C06802210840002804D10B480069BE
:102080000840002801D0012000E0002000280AD0EC
:10209000022001F059FD0AF083FE01200449087076
:1020A000372007F0E9F910BD300000200018024089
:1020B0006000002010B500202249087022490870F5
:1020C000224908602248C06880210840002804D1C5
:1020D0001F4800690840002801D0012000E00020CE
:1020E000002802D0802001F02FFD1948C06801218E
:1020F00049030840002804D1154800690840002819
:1021000001D0012000E00020002819D00120400368
:1021100001F01AFD0F480078002811D10E4908601F
:10212000012211020520000701F029FE01200B49C0
:1021300008700B480078002802D101200849087077
:1021400010BD0000300000204400002040000020AE
:1021500000180240000000200800002005010020B7
:10216000F400002070B500F0C3FA04460025012CED
:1021700024D102233922032104200AF047FD054619
:1021800002221149114809F02EFF05466422104928
:102190000E48203009F027FF054664220D490E48FD
:1021A00009F021FF054601220C490D4809F01BFFEB
:1021B000054632220B490C4809F015FF022007F0B2
:1021C00017F9284670BD0000C808002000C80108A3
:1021D00060180020D808002050CB010840150020CE
:1021E00080CE0108D000002020D1010872B600BFC7
:1021F000FEE7000004494969012212040243114329
:10220000014A5161704700000020024010B50346AA
:10221000064A5269064C22401046CA000124240492
:102220002243921C0243014C626110BD0020024017
:1022300007E0FFFF10B50849496901242143064C16
:102240006161026000BF00BF00BFBFF36F8F00BFBE
:1022500000BF00BF436010BD00200240F0B5024641
:10226000002314460D46114E76690127BF043E43F4
:102270000E4F7E6100BFEFF31086304672B605E068
:102280002E6826602D1D241D5E1CF3B2402BF7D353
:1022900000BF064E366901273F043E40002EF8D1AC
:1022A00000BF80F3108800BFF0BD00000020024096
:1022B00070B5044601F06AFD064601252D0409E0CB
:1022C000601C002806D001F061FD801BA04201D3F4
:1022D000032070BD1348006928400028F0D1114840
:1022E0000069114908400546481C0E490861002D47
:1022F00003D00E4845600120EBE709E0601C002890
:1023000006D001F043FD801BA04201D30320E0E78B
:10231000044800690121890408400028EED100BF6B
:10232000D7E7000000200240FA8300005406002096
:1023300010B500244BE0012396222849C32000F069
:102340005BF80023062219463F2000F055F8244987
:1023500008700023042201213F2000F04DF821499C
:1023600008700023012202213F2000F045F81E4999
:1023700008700023032211463F2000F03DF81B495E
:10238000087000231A4640213F2000F035F8184914
:10239000087000231A4641213F2000F02DF8104814
:1023A000007800280FD10F48007800280BD10E4884
:1023B0000078002807D10D480078002803D10C4888
:1023C0000078002800D000E00324601CC4B2032C75
:1023D000B1DB00200749087010BD000007070000AE
:1023E0000A0100200B0100200C0100200D0100203B
:1023F0000E01002006010020F8B505460E461746DE
:102400001C463A463146284606F040F87D23DB005C
:1024100008220B490B4804F035FD002C07D17D2321
:10242000DB0008220849074804F044FC05E00520C9
:1024300001F02EFA034804F0BFF80020F8BD0000B8
:10244000FD0000202C050020F5000020FEB505460B
:102450000E4617461C460021019100913A4631462E
:10246000284606F013F87D23DB0008220C490D48AE
:1024700004F008FD0190002C07D10B4B08220B49FA
:10248000084804F017FC009005E00A2001F000FA6B
:10249000044804F091F86946087809790843FEBDBC
:1024A000FD0000202C050020B80B0000F5000020E6
:1024B00070B500F017F90546012D7DD16848007808
:1024C0000128FAD1674800780028F6D1FF24664831
:1024D0000078030009F0AAFD0705061B56882A8428
:1024E0008C0086E00021012005F0ECFF04465F48E7
:1024F000844205D001205E4908705E490C7002E0FC
:1025000002205B49087000205749087071E00121E2
:10251000022005F0D7FF5549884203D002205649D2
:10252000087002E001205449087062E053480088B6
:102530000A2823DA0121022005F0C4FF4B49884212
:1025400018D1022006F076FB00280FD14C48007805
:1025500000280BD149480088401C484908800120C8
:1025600006F046FF032006F087FF0AE0012006F090
:1025700083FF06E0142006F07FFF02E0132006F040
:102580007BFF36E03D484088282825DA00210120DD
:1025900005F098FF354988421AD1012006F04AFB20
:1025A000002811D13648007800280DD133484088E2
:1025B000401C3249488000E026E0012006F018FF68
:1025C000032006F059FF0AE0012006F055FF06E05F
:1025D000142006F051FF02E0132006F04DFF08E042
:1025E0000220FFF791FC04E00120FFF78DFC00E0E2
:1025F00000BF00BF002004E00021224A1154411C0A
:10260000C8B20828F8DB24E016480078012820D159
:102610001D480068002803D101F0B8FB1A49086082
:1026200001F0B4FB18490968401AFF21F5318842CE
:102630000FD900200B490870012396221349C320AB
:10264000FFF7DAFE0022FF2101310520000701F02B
:1026500096FB0BF0B3FE02200149087070BD00002C
:102660000501002006010020F4000020FFFF00000B
:102670000C00002022000020CF000020D00000200D
:102680000F010020F50000201401002007070000C2
:1026900070B505460C46E100FF222846FDF750FEC6
:1026A00070BDF0B50346002010E00027FF431D6811
:1026B0007D405C687C40254300D1F0BD1446D517B1
:1026C0006D0F2D19ED10ED00EB18401C8842ECD376
:1026D0000020C043F1E70000014800787047000087
:1026E00076000020014800787047000009010020B2
:1026F0000148007870470000D400002001480078AD
:102700007047000040010020014800787047000039
:102710005801002001480088704700007400002024
:10272000F0B585B0044600200390002500BF54207A
:10273000005D012802D1022005B0F0BD0121542026
:10274000015500BF2046FEF765FF0490206805F0A4
:1027500047FA00287ED1A06DFF2101318843022174
:102760000843A0652068C06854490840029020686A
:10277000C068C94308402168C860002628E0206876
:1027800081684F4A114012078918816000BF13E029
:102790000398401C03904B49039888420CD3A06DCA
:1027A0000221884310210843A06500BF0021542066
:1027B000015500BF0120BFE720688168C90F0029CB
:1027C000E6D12068B42109584906490E4D19761CF6
:1027D000082ED4D331462846FDF712FE0546206860
:1027E0008168374A1140491C816000BF2068016937
:1027F000890F8907002919D100BF334807680F21C5
:1028000089040F4000BF0720800487420ED3B80C14
:10281000C01E01218140009100984008009002E014
:102820000098401E009000980028F9D12068B4213B
:102830000958C909C9012943B422115000BF2068B1
:1028400081681F4A1140891C816000BF01F09EFA17
:10285000019015E026E001F099FA0199401A02284A
:102860000ED9206805F0BCF9002809D0A06D102110
:102870000843A065E06D01210843E06501205BE7A6
:10288000206805F0ADF90028E5D12068C0680299FC
:1028900008432168C860A06D0221884301210843D4
:1028A000A06503E0A06D10210843A06500BF0021D2
:1028B0005420015500BF04983EE70000038000004B
:1028C000E8FFFF7F00F202000827014070477047D1
:1028D00070477047F0B585B005460C460020039060
:1028E00002900121C9072869884203D0091D28697F
:1028F000884200D100E000BF00BF5420405D0128A5
:1029000002D1022005B0F0BD01215420415500BF85
:10291000286805F074F9002876D16068022874D020
:102920000121C9072869884203D0091D2869884206
:1029300008D128682168826A4B035B0B1A438262C4
:1029400000BFC6E02179CA06D20E0F219140286E41
:10295000884321684903490B002905D11F229206AB
:1029600021681140890E92E02178C907C90F00291A
:1029700001D000218BE0022221681140022901D1FF
:10298000012184E0042221681140042901D102219F
:102990007DE0082221681140082901D1032176E059
:1029A000102221681140102901D104216FE020225A
:1029B00021681140202901D1052168E040222168C9
:1029C0001140402901D1062161E080222168114097
:1029D000802901D107215AE0FF22013221681140EC
:1029E000914201D1082152E0012252022168114096
:1029F000914201D109214AE001229202216811404D
:102A0000914203D10A2142E0FAE0BAE00122D20267
:102A100021681140914201D10B2138E001221203BB
:102A200021681140914201D10C2130E00122520372
:102A300021681140914201D10D2128E00122920329
:102A400021681140914201D10E2120E00122D203E0
:102A500021681140914201D10F2118E00122120496
:102A600021681140914201D1102110E0012252044D
:102A700021681140914201D1112108E00122920404
:102A800021681140914201D1122100E000212279F8
:102A9000D206D20E91400843286660688008401C28
:102AA000E969884215D82868226861680192836ABA
:102AB000CF06FF0E0F22BA4093430F27BF06019A9D
:102AC0003A40920ECF06FF0EBA401343836200BF16
:102AD00000BF286821680091A168019142690099AE
:102AE00009028A4300990B024C4F019939400B406F
:102AF0001A43426100BF2068C00FC007002821D0E0
:102B0000474805F059F806464649206888421AD1D8
:102B1000C0023040002816D1C80230430146404868
:102B200005F086F8404941480068FDF769FC401C03
:102B30000C214843029002E00298401E0290029845
:102B40000028F9D162E03A49206888420AD180021F
:102B50003040002806D1880230430146304805F055
:102B600067F853E03349206888424FD14002304033
:102B700000284BD1480230430146294805F058F857
:102B800044E00121C9072869884203D0091D28694A
:102B9000884208D128682168826A4B035B0B9A43FC
:102BA000826200BF00BF2068C00FC00700282DD080
:102BB0001B4805F001F806461A492068884207D1EB
:102BC000C202304690430146154805F031F81DE039
:102BD00017492068884207D1820230469043014657
:102BE0000F4805F025F811E01249206888420DD100
:102BF0004202304690430146094805F019F805E0C5
:102C0000A86D20210843A8650120039000BF002182
:102C10005420415500BF039874E6000000FFFF07F1
:102C200008270140001000B0400D03007000002094
:102C3000004000B8002000B40A490968C8290FD232
:102C400008490968491C074A116007490A8805496B
:102C50000968491E4900054B5A520121044A117066
:102C600070470000B0000020AE0000207006002079
:102C7000AC0000207047000070B50446002C01D164
:102C8000012070BDA06D02210843A0652046FEF71B
:102C90002BFC0546002D0ED12046FEF7BBFC054659
:102CA000002D01D10120A06520688168264A1140CD
:102CB000816000BF00BF2068406824490840216847
:102CC00048602248C043216808602068C0682049E5
:102CD00008402168C86020684069C008C0002168B9
:102CE00048612068806A0020216888622068006A44
:102CF00018490840216808622068406A1549084060
:102D0000216848622068C06A124908402168C86288
:102D10002068006980008008216808610E4880688A
:102D20007F21890488430C498860204600F03AFAE4
:102D300000202066E065A06500BF002154200155F9
:102D400000BF28469DE70000E8FFFF6F60FCFFFF23
:102D500000021E8300F000F0002701407047F8B524
:102D6000044600272068056820684668022028403D
:102D7000022811D1304002280ED1A06D1021084048
:102D8000002803D1A06DC9010843A0652046FFF7C4
:102D90009EFD02202168086004202840042802D1FA
:102DA0003040042806D00820284008283AD1304076
:102DB000082837D1A06D10210840002803D1A06D4C
:102DC00049010843A065206804F01FFF002823D0B4
:102DD000A07E002820D1206800680821084008282B
:102DE0001AD1206804F00BFF00280DD1206840683C
:102DF0000C21884321684860A06DFF210131884380
:102E000001210843A06507E0A06D20210843A065CB
:102E1000E06D01210843E0652046FFF70DFF0C201F
:102E2000216808608020284080280DD1304080280B
:102E30000AD1A06D012109040843A065204600F0D5
:102E4000AFF9802021680860FF2001302840FF2171
:102E5000013188420DD1304088420AD1A06D49022B
:102E60000843A0652046FFF733FDFF2001302168AD
:102E700008600120400228400121490288420DD10A
:102E8000304088420AD1A06D49020843A06520461F
:102E9000FFF71FFD01204002216808601020284034
:102EA00010281ED1304010281BD1206B002801D1E2
:102EB000012706E02068C1688907890F002900D032
:102EC0000127012F0AD1A06DB9020843A065E06D6A
:102ED00002210843E0652046FFF740FF10202168EB
:102EE000086001204003284001214903884209D19C
:102EF0003040884206D12046FFF7E8FC012040031D
:102F000021680860F8BD0000FEB50446002002906C
:102F1000002500260190002C01D10120FEBD3C209F
:102F2000005D012800D100BF2069002805D00121E3
:102F300049052069884200D100BFA06D002807D153
:102F4000204600F04DF90020E06500215420015595
:102F5000206804F04DFE002817D120688168894A56
:102F60001140012212071143816000BF8649874842
:102F70000068FDF745FA401C4000019002E001980E
:102F8000401E019001980028F9D1206804F030FE1D
:102F9000002809D1A06D10210843A065E06D012132
:102FA0000843E06501200290206804F028FE0746EF
:102FB000A06D1021084000287ED1002FFCD1A06D0B
:102FC0000901884302210843A065206804F000FE3F
:102FD000002872D1217E8903A0680843617EC9035D
:102FE0000843A17E49030843216B002902D0012137
:102FF000090300E000210843E16808432169C90F83
:10300000C907002903D021694900490801E00121CD
:10301000490508432C21095D490008430543202048
:10302000005D01280ED1A07E002803D101200004FC
:10303000054307E0A06D20210843A065E06D012154
:103040000843E065606A002806D0FF21C131606A4C
:103050000840A16A084305432068C0684C490840FD
:1030600028432168C8606068800F8007E16C0843CE
:1030700006433C20005D01280BD16068800F80076B
:1030800001210843216C0843616C0843A16C08438B
:103090000643206800693F490840304321680861C1
:1030A000032189076068884216D0494260688842D7
:1030B00012D04900606801E05BE00DE088420BD06F
:1030C000354880680F21890488430F229204616883
:1030D00011400843304988600021626B206804F089
:1030E000AEFD2E49A26B206804F0A9FD20690028DE
:1030F00007D12068806A0F21C9430843216888628C
:1031000011E001214905206988420CD1207F401E31
:103110004007C10E0F20C0438840216E084321683C
:10312000896A2168886221680020009100994969B4
:103130000422024007239340194004220240D14058
:10314000606B814208D10020E065A06D02218843B8
:1031500001210843A06512E0A06D022188431021DF
:103160000843A065E06D01210843E065012002905D
:1031700005E0A06D10210843A0650120029002988F
:10318000CCE60000E8FFFF7F400D03007000002048
:103190000102DEFF02FCFF1F0027014004FFFF07C2
:1031A0007047000010B504460B492068884211D1D1
:1031B0000A48006801210905884308490860802100
:1031C0000520000700F038FC206D00F0B3F90C205A
:1031D00001F0B0F910BD0000002401404010024091
:1031E00010B586B00446142101A8FDF7D0F82B498C
:1031F0002068884250D100BF294800680121090594
:10320000084327490860084600680121090508406D
:10321000009000BF00BF00BF21484038406B012133
:1032200008431F49403948630846406BC007C00F38
:10323000009000BF00BF802001900320029000207A
:10324000039001A90520000700F09AFC15481649D3
:10325000086005204860002113488160C16080211A
:10326000016149004161890081612021C161002122
:10327000016200F047FA002801D0FEF7B7FF00BF57
:1032800009482065846200BF002211460C2001F02D
:1032900081F90C2001F06CF906B010BD002401404A
:1032A00040100240080002402C030020F8B50446FC
:1032B0000E461746206804F0A2FC002850D100BF3B
:1032C0005420005D012801D10220F8BD01215420C5
:1032D000015500BF2068C068084000280DD1206853
:1032E00004F076FC002802D0206804F055FC206829
:1032F000C068012108432168C8602046FEF7D0F964
:103300000546002D2DD1A06D17490840FF21013140
:103310000843A0650020E0651448216DC862144888
:10332000216D08631348216D48631C2021680860E3
:1033300000BF00215420015500BF206840681021C3
:103340000843216848602268114640313B463246B6
:10335000206D00F037FA0546206804F061FC00E0BB
:1033600002252846B1E70000FEF1FFFF59150008CD
:1033700007160008E915000870B5044600BF542080
:10338000005D012801D1022070BD012154200155AA
:1033900000BF2046FEF7A8F80546002D2DD1206D70
:1033A00020304079022809D1206D00F02DF8054623
:1033B000002D03D0A06D40210843A065206840681F
:1033C0001021884321684860002D04D12046FEF773
:1033D00021F9054602E02046FEF71CF9002D06D132
:1033E000A06DFF210131884301210843A0652068B9
:1033F000C068400840002168C86000BF0021542018
:10340000015500BF2846BFE70146002901D1012030
:1034100070472520405C022808D00420C86300BF04
:1034200000222420425400BF0120F1E70868006810
:103430000E2290430A681060486C0068FF22013237
:1034400090434A6C106008680068400840000A68B1
:103450001060124840681C230A6C1A4001239340F4
:1034600018430E4A50608A6CC86C5060086D002882
:1034700009D0086D0068FF22013290430A6D106088
:103480004A6D886D506001222520425400BF002201
:103490002420425400BF0020BAE700000000024090
:1034A00070B5044600252520005D022803D00420C5
:1034B000E06301253AE0206800680E218843216816
:1034C0000860206800684008400021680860606C5F
:1034D0000068FF2101318843616C0860144840682E
:1034E0001C22216C114001228A401043104948607F
:1034F000A16CE06C4860206D002809D0206D006848
:10350000FF2101318843216D0860616DA06D486025
:1035100001212520015500BF00212420015500BFB5
:10352000A06B002802D02046A16B8847284670BDBA
:103530000000024010B50446002C01D1012010BD4E
:10354000206800684008400021680860204A21681F
:10355000881A1421FCF754FF8000206400202168A1
:1035600008601B48083840681C22216C1140012269
:103570008A4010431649083948602046FEF7AAFBE6
:103580000020616C0860A16CE06C486060680028F5
:103590000BD06068042808D82046FEF7B5FB002051
:1035A000216D0860616DA06D486000202065606538
:1035B000A065E06220636063A063E06300212520D2
:1035C000015500BF2420015500BF0020B7E70000CF
:1035D000080002400146C86B704701462520405C48
:1035E0007047000070B504464548056820680668C5
:1035F0001C20216C0140042088402840002820D055
:103600000420304000281CD0206800682021084099
:10361000002805D1206800680421884321680860DB
:10362000374840681C22216C114004228A40104314
:1036300033494860206B002860D02046216B8847C2
:103640005CE01C20216C01400220884028400028BA
:1036500028D002203040002824D020680068202193
:103660000840002808D1206800680A2188432168A2
:103670000860012125200155214841681C22206C49
:1036800010400222824011431D48416000BF0021CA
:103690002420015500BFE06A00282FD02046E16AAF
:1036A00088472BE01C20216C0140082088402840DE
:1036B000002823D00820304000281FD02068006850
:1036C0000E218843216808600D4841681C22206C47
:1036D0001040012282401143094841600120E0630B
:1036E00001212520015500BF00212420015500BFE4
:1036F000606B002802D02046616B884770BD0000D7
:103700000000024010B50446002C01D1012010BD7C
:103710002A4A2168881A1421FCF772FE800020646E
:1037200002212520015520680068254908402168AC
:103730000860E168A068084321690843616908439B
:10374000A1690843E1690843216A084321680968BF
:103750000843216808602046FEF7BCFA012189036E
:10376000A068884201D10020606020798006800E28
:10377000616C0860A16CE06C4860606800280CD047
:103780006068042809D82046FEF7BEFA0020216DA3
:103790000860616DA06D486003E0002020656065F1
:1037A000A0650020E06301212520015500BF002114
:1037B0002420015500BF0020A9E7000008000240B6
:1037C0000F80FFFFF8B504460D4616461F46002041
:1037D000009000BF2420005D012801D10220F8BD27
:1037E00001212420015500BF2520005D012844D17E
:1037F0000221252001550020E06320680068400870
:103800004000216808603B46324629462046FEF7C4
:103810008FFA206B002806D0206800680E2108432C
:10382000216808600BE02068006804218843216853
:103830000860206800680A21084321680860606CFD
:103840000068012109040840002805D0606C006868
:1038500009120843616C0860206D002806D0206DB5
:103860000068FF2101310843216D0860206800686D
:10387000012108432168086008E08020E06300BF60
:1038800000212420015500BF012000900098A6E7E8
:1038900070B5044600F07AFA06462546681C0028F2
:1038A00002D0054800782D1800BF00F06FFA801B89
:1038B000A842FAD370BD00006C000020F8B50446A1
:1038C0000F4600BF23480078012801D10220F8BD2F
:1038D00001202049087000BF002048607D20C00002
:1038E000FEF7E6FC0646002E2CD10420606020681E
:1038F000042808D16068FEF77DFC7D20C000FEF73B
:10390000D7FC06461EE00020C0433860A5680DE0E5
:1039100029466068FEF77AFC7D20C000FEF7C8FCEF
:103920000646002E01D03D6005E06D1CE168A068F0
:103930004018A842ECD800BF0748406902218843DC
:103940000549486100BF00200249087000BF3046A9
:10395000BDE70000540600200020024010B50124FD
:103960007D20C000FEF7A4FC07484069E10708433A
:103970000549486108464069C00FC007002800D0CB
:103980000024204610BD000000200240F0B51FB406
:10399000064614461D4600BF18480078012802D18B
:1039A000022005B0F0BD01201449087000BF0020BE
:1039B00048607D20C000FEF77BFC0746002F15D134
:1039C000012E05D122462B460198FEF733FC03E079
:1039D00021460198FEF742FC7D20C000FEF768FCFE
:1039E000074607484069B0430549486100BF0020C9
:1039F0000249087000BF3846D3E700005406002093
:103A000000200240002009494969C90FC90700295F
:103A10000BD00749054A91600649916011464969F2
:103A2000C90FC907002900D00120704700200240BB
:103A300023016745AB89EFCDF0B502460B46002068
:103A400073E0012585402946194000296CD0394D85
:103A50008608B600AC598507EE0E0F25B5402C4000
:103A600005252D07AA4201D100250FE0324DAA42BB
:103A700001D101250AE0314DAA4201D1022505E01C
:103A80002F4DAA4201D1032500E005258607F60E39
:103A9000B540A54222D1274D20352D688D43254EB6
:103AA0002036356035466D688D437560214D603D2B
:103AB0006D688D431F4E603E756035462D688D43A1
:103AC00035608507EE0E0F25B5402C46194D86084A
:103AD000B600AE59A6438708BF00EE5115684700EF
:103AE0000326BE4035431560C508AE001546203597
:103AF000AD594607F70E0F26BE40B543C608B600BF
:103B000017462037BD51956847000326BE40B54390
:103B10009560556801268640B5435560D5684700D5
:103B20000326BE40B543D560401C1D46C540002D50
:103B300087D1F0BD6018024000040050000800501A
:103B4000000C00507047000010B504460A48C068D9
:103B50002040002804D00848C460204600F00EF839
:103B6000054800692040002804D00348046120462D
:103B7000FFF7E8FF10BD000000180240704700008A
:103B800070B503460A460021D7E001268E4014682E
:103B90003440002C73D01579AD07AD0F012D04D042
:103BA0001579AD07AD0F022D18D198684E00032589
:103BB000B5400646AE4330464E00D568B540284372
:103BC0009860586801258D400646AE433046102661
:103BD000556835402D098D40284358601579AD074B
:103BE000AD0F032D0BD0D8684E000325B540064617
:103BF000AE4330464E009568B5402843D8601579ED
:103C0000AD07AD0F022D15D1CD08AE001D462035F4
:103C1000A8594D07EE0E0F25B5400646AE43304677
:103C20004E07F60E1569B5402843CD08AD001E4677
:103C30002036705118684E000325B5400646AE4345
:103C400030461579AD07AD0F4E00B54028431860DA
:103C50000326360455683540002D6DD03A4D8E0848
:103C6000B600A8598D07EE0E0F25B5400646AE43A7
:103C7000304605252D07AB4202D1002510E05BE060
:103C8000324DAB4201D101250AE0314DAB4201D1A9
:103C9000022505E02F4DAB4201D1032500E00525AB
:103CA0008E07F60EB5402843274D8E08B600A85162
:103CB000254D603D28680546A54328460126360562
:103CC00055683540002D02D00546254328461E4D37
:103CD000603D286068680546A543284601267605AC
:103CE00055683540002D02D0054625432846164D1F
:103CF000603D6860144D203568680546A543284638
:103D00000126760455683540002D02D0054625432E
:103D100028460D4D2035686028680546A54328468D
:103D20000126360455683540002D02D0054625434E
:103D30002846054D20352860491C1568CD40002DCA
:103D400000D022E770BD000060180240000400505F
:103D500000080050000C0050024613690B40002B75
:103D600001D0012000E00020704710B542691346E1
:103D70000B401B040C4694432343836110BD002A6F
:103D800001D0816100E08162704700000148006855
:103D9000704700006400002002464120805C20281B
:103DA0002FD100BF4020805C012801D10220704744
:103DB00001234020835400BF2423412083541068F2
:103DC000006840084000136818601068006801230C
:103DD0001B03984313681860106800680843136851
:103DE00018601068006801231843136818602023C6
:103DF0004120835400BF00234020835400BF002093
:103E0000D5E70220D3E710B502460B464120805C7F
:103E100020282ED100BF4020805C012801D1022043
:103E200010BD01244020845400BF24244120845428
:103E3000106800684008400014682060106801683D
:103E40000F2424020846A0430146180201431068CB
:103E50000160106800680124204314682060202459
:103E60004120845400BF00244020845400BF00201F
:103E7000D6E70220D4E770477047F8B504462068BB
:103E8000856920680668FF2001302840000A002864
:103E90000BD080203040C009002806D0606C012182
:103EA0000843606408022168C8610120800228403C
:103EB000800A00280BD080203040C009002806D09E
:103EC000606C082108436064C8012168C861012052
:103ED00040022840400A00280BD080203040C00912
:103EE000002806D0606C0221084360640802216843
:103EF000C861676C0B203840002803D03946204643
:103F000003F03AF9F8BD70B5044620688569206869
:103F10000668606B002804D0324629462046636B51
:103F2000984770BD7047000010B50446002C01D1C1
:103F3000012010BD4120005D002805D10021402056
:103F40000155204600F0E8F9242141200155206860
:103F5000006840084000216808600F210906606879
:103F6000884321680861206880680121C90388436B
:103F700021688860E068012806D10121C903A06892
:103F800008432168886005E021218902A068084370
:103F900021688860E068022807D120684068012114
:103FA000C90208432168486006E020684068012192
:103FB000C902884321684860206840681449084362
:103FC000216848602068C0680121C90388432168CE
:103FD000C860616920690843A16909020843216832
:103FE000C860216AE06908432168086020680068A9
:103FF00001210843216808600020606420214120DD
:10400000015500202063002142200155002090E747
:104010000080000270470000FFB581B004461646DC
:104020001F464120005D202877D100BF4020005D61
:10403000012802D1022005B0F0BD01214020015528
:1040400000BFFFF7A3FE054619230122D103204636
:10405000009503F08AFC002801D00120EBE7222123
:104060004120015510214220015500206064666204
:1040700067856063608DFF280BD9FF2020853F484E
:104080000090208DC2B20B052046029903F030FC4F
:104090000BE0608D208539480090208DC2B201234D
:1040A0005B062046029903F023FC43E02A462046A3
:1040B0000A9903F099FC002801D00120BBE7206891
:1040C000406A616A0870606A401C6062208D401E10
:1040D0002085608D401E6085608D00282AD0208D4F
:1040E000002827D100950022802120460A9B03F05A
:1040F0003CFC002801D001209DE7608DFF280DD9F0
:10410000FF20208500200090208DC2B201231B06D5
:104110002046029903F0ECFB0CE02CE0608D20853A
:1041200000200090208DC2B201235B062046029938
:1041300003F0DEFB608D0028B8D12A4620460A999C
:1041400003F0C0FC002801D0012074E72020216882
:10415000C861206840680A490840216848602021F9
:104160004120015500214220015500BF402001554A
:1041700000BF00205FE702205DE700000024008010
:1041800000E800FEFFB581B0044617464120005DFF
:1041900020287DD100BF4020005D012802D10220EF
:1041A00005B0F0BD01214020015500BFFFF7EEFD35
:1041B000054619230122D1032046009503F0D5FBC3
:1041C000002801D00120EBE72121412001551021D9
:1041D00042200155002060646762049860850020D9
:1041E0006063608DFF2803D9FF2020850E0503E062
:1041F000608D208501267606208D002817D0606A04
:10420000007821688862606A401C6062608D401E90
:104210006085208D401E20853D480090208D401CEB
:10422000C2B233462046029903F062FB08E03848E8
:104230000090208DC2B233462046029903F058FB0D
:1042400043E02A4620460A9903F06FFC002801D07B
:104250000120A5E7606A007821688862606A401CD6
:104260006062608D401E6085208D401E2085608DBF
:1042700000282AD0208D002827D1009500228021F7
:1042800020460A9B03F071FB002802D0012087E73B
:104290003CE0608DFF280CD9FF2020850020009095
:1042A000208DC2B201231B062046029903F020FB99
:1042B0000BE0608D208500200090208DC2B201238C
:1042C0005B062046029903F013FB608D0028B8D1ED
:1042D0002A4620460A9903F0F5FB002801D0012068
:1042E0005EE720202168C8612068406809490840CD
:1042F00021684860202141200155002142200155BC
:1043000000BF4020015500BF002049E7022047E7D9
:104310000020008000E800FE10B58EB00446142195
:1043200009A8FCF734F81C2102A8FCF730F8224950
:10433000206888423ED1202002900020059002A8EB
:1043400000F086F9002801D0FDF750FF00BF1B48A0
:10435000406B02210843194948630846406B02211B
:104360000840019000BF00BF032000020990122006
:104370000A9000200B900C9006200D9009A910487F
:10438000FFF7FEFB00BF0D48C06B01214905084344
:104390000A49C8630846C06B0121490508400190DD
:1043A00000BF00BF00221146172000F0F3F81720CD
:1043B00000F0DEF80EB010BD0054004000100240C6
:1043C000000400507047704770B50446002C01D1BE
:1043D000012070BD184821680860184821680860ED
:1043E0002168606848602168A0688860FFF7CEFC9B
:1043F00005460CE0FFF7CAFC401B312807D92068AE
:10440000C0684007400F002801D00320E1E7206882
:10441000C0684007400F0028ECD120680169E068BF
:10442000814203D02168E068086102E00448216805
:1044300008600020CDE70000CCCC000055550000FE
:10444000AAAA0000034800680349097840180149F6
:1044500008607047640000206C00002010B5002444
:1044600008480068FF21013108430649086003201D
:1044700000F00AF8002801D0012401E000F034F82F
:10448000204610BD00200240F8B504460025134820
:10449000007800281ED0114801787D20C000FBF76D
:1044A000AFFF074639460E480068FBF7A9FF0646EE
:1044B00001F072FD00280BD1042C07D20022214606
:1044C000401E00F067F80748046004E0012502E0A0
:1044D000012500E001252846F8BD00006C00002001
:1044E000700000206800002008B500BF1048006878
:1044F000012108430E49086008460068C007C00F44
:10450000009000BF00BF00BF09484038C06B89055C
:10451000084307494039C8630846C06B090408408E
:10452000009000BF00BF0320400201F029FD08BD3C
:10453000401002400146002915DBCB06DB0E0122AC
:104540009A400A4B1A6000BF00BF00BFBFF34F8FF5
:1045500000BF00BF00BF00BF00BF00BFBFF36F8F31
:1045600000BF00BF00BF00BF7047000080E100E057
:104570000146002909DB00BF00BFCB06DB0E01228C
:104580009A40034B1A6000BF00BF00BF7047000095
:1045900000E100E070B504460D4616462946204667
:1045A00007F052FD70BD000070B504461148006868
:1045B00003214902884320430E490860481584427C
:1045C00016D10D4909680622514308460B49FBF7ED
:1045D00017FF451C05E0002D01D06D1E01E00320F2
:1045E00070BD044840690121890208408842F2D028
:1045F0000020F5E7007000407000002040420F00EE
:10460000002807D0104A1268D208D200521C0E4B64
:104610001A6005E00C4A1268D208D2000A4B1A60F0
:104620000A4A126904231A43084B1A61012901D16D
:1046300030BF02E040BF20BF20BF044A12690423FC
:104640009A43024B1A6170470070004000ED00E091
:10465000FEB504460027002002900121490420688D
:10466000084088427BD1002001907748C06BC90286
:10467000084000280ED100BF7348C06B0843724940
:10468000C8630846C06B09040840009000BF00BF23
:10469000012001906D480068FF21013108436B49FA
:1046A0000860FFF773FB064606E0FFF76FFB801B11
:1046B000022801D9032706E064480068FF21013180
:1046C00008400028F1D000BF002F4BD15E48403099
:1046D000C569032109020D40002D1AD0A069A84226
:1046E00017D059484030C069884305465648403085
:1046F000C06901210904084353494031C861084693
:10470000C0690121090488434F494031C861084606
:10471000C561E807C00F002813D0FFF737FB064636
:1047200007E0FFF733FB801B4949884201D9032783
:1047300006E045484030C069022108400028F0D01A
:1047400000BF002F0CD140484030C069032109024E
:104750008843A16908433C494031C86103E00DE04A
:10476000029700E002970198012806D13648C06BF5
:104770000121090788433449C86300BF2078C00776
:10478000C00F002809D030484030406980088000C0
:10479000616808432C494031486102212068084083
:1047A000022809D12848403040690C218843A1687B
:1047B00008432549403148612021206808402028CD
:1047C0000AD1214840304069032109038843E16848
:1047D00008431D4940314861012189032068084090
:1047E000884213D1184840304069800080086169D0
:1047F000084315494031486109066069884205D17E
:104800001148C068891308430F49C8600121C902D3
:1048100020680840884215D10B4840304069032188
:1048200089038843216908430749403148610121D0
:1048300089032069884205D10348C068890008437C
:104840000149C8600298FEBD00100240007000409F
:104850008813000070B504460D46002C01D10120DC
:1048600070BD6B4800684007400FA84218D26848E6
:104870000068C008C000284365490860FFF786FA51
:10488000064607E0FFF782FA801B6249884201D999
:104890000320E5E75E4800684007400FA842F1D1D9
:1048A000022120680840022815D104212068084010
:1048B000042807D158488068072109038843401815
:1048C00055498860544880680F2109028843A168CF
:1048D0000843514988602078C007C00F002854D091
:1048E0006068012808D14C4800680121490408404B
:1048F00000282ED10120B3E76068022808D146487D
:104900000068012149060840002822D10120A7E7BC
:104910006068002808D140480068012189020840E9
:10492000002816D101209BE76068032808D13A4887
:104930004030006A0221084000280AD101208FE798
:1049400035484030C06902210840002801D10120CB
:1049500086E731488068C008C000616808432E4976
:104960008860FFF713FA064607E0FFF70FFA801B8F
:104970002849884201D9032072E7274880683821F6
:1049800008406168C9008842EFD1214800684007AB
:10499000400FA84218D91E480068C008C00028432C
:1049A0001B490860FFF7F2F9064607E0FFF7EEF94A
:1049B000801B1849884201D9032051E71448006838
:1049C0004007400FA842F1D1042120680840042884
:1049D00008D111488068072109038843E16808432A
:1049E0000D49886000F03AF80B4989680F221202DD
:1049F0001140090A8900094A515CC906C90EC8401C
:104A00000749086007480068FFF73EFD28E70000F7
:104A1000002002408813000000100240A8EA0008AD
:104A20007000002068000020014800687047000006
:104A30007000002000B5FFF7F7FF064989680722DC
:104A400012031140090B8900034A515CC906C90EC3
:104A5000C84000BD00100240E8EA0008FEB5354835
:104A600080683821084000280DD1324800680902CA
:104A70000840C10A0120884000902F480099FBF7A8
:104A8000BFFC044654E02B488068382108400828C1
:104A900001D12A4C4CE02748806838210840102872
:104AA00034D12448C0688607B60F2248C0687021F8
:104AB00008400009401C0190022E0FD0032E0CD19B
:104AC0001E480199FBF79CFC1A49C9687F22120213
:104AD0001140090A484305460DE000BF16480199F8
:104AE000FBF78EFC1349C9687F2212021140090AA4
:104AF0004843054600BF00BF0E48C068400F471C32
:104B000039462846FBF77CFC044611E009488068DA
:104B100038210840202801D1840209E00548806836
:104B200038210840182802D17D24240200E0002406
:104B30002046FEBD001002400024F40000127A005E
:104B4000FEB50446002C01D10120FEBD2078C0072F
:104B5000C00F00286FD0F748876838210F40C06821
:104B60008607B60F102F01D1032E01D0082F0BD1CD
:104B7000F048006801214904084000285BD06068C3
:104B8000002858D10120E0E700BF01210904606836
:104B9000884205D1E74800680843E649086021E0FB
:104BA00005210904606888420ED1E24800680121AD
:104BB00089040843DF4908600846006801210904A8
:104BC0000843DC4908600DE0DA4800680121090467
:104BD0008843D84908600846006801218904884351
:104BE000D449086000BF6068002812D0FFF7CEF8F3
:104BF000054606E0FFF7CAF8401B642801D90320E8
:104C0000A3E7CC4800680121490408400028F1D0FE
:104C100011E0FFF7BBF8054606E0FFF7B7F8401BC9
:104C2000642801D9032090E7C248006801214904A3
:104C300008400028F1D1022120680840022873D1E1
:104C4000BC488068382108400746BA48C0688607D3
:104C5000B60F102F01D1022E01D0002F36D1B5484A
:104C60000068012189020840002804D0E06800287B
:104C700001D1012069E7AF4840687F2109028843DC
:104C8000616909020843AB494860002F16D1084604
:104C900000680721C902884321690843A5490860C3
:104CA000084600680722D2021040C20A0120904044
:104CB0000146A148FBF7A4FBA0490860A048006892
:104CC000FFF7E2FB002849D001203EE7E06800281A
:104CD0002BD0984800680721C902884321690843FE
:104CE000944908600846006889150843914908609E
:104CF000FFF74CF8054606E0FFF748F8401B02288E
:104D000001D9032021E78B4800680121890208406E
:104D10000028F1D0874840687F21090288436169F3
:104D2000090208438349486018E082480068FF216F
:104D3000013188437F490860FFF728F8054606E0FF
:104D4000FFF724F8401B022801D90320FDE679482B
:104D500000680121890208400028F1D1082120685B
:104D60000840082849D1734880683821084018282D
:104D70000BD170484030006A0221084000283CD026
:104D8000A069002839D10120DFE6A06900281AD0E7
:104D900068484030006A0121084366494031086292
:104DA000FEF7F4FF054606E0FEF7F0FF401B022881
:104DB00001D90320C9E65F484030006A022108405B
:104DC0000028F1D019E05B484030006A40084000FC
:104DD000584940310862FEF7D9FF054606E0FEF764
:104DE000D5FF401B022801D90320AEE651484030D0
:104DF000006A022108400028F1D1042120680840FF
:104E000004287CD1002001904A488068382108405D
:104E100020280BD147484030C069022108400028B3
:104E20006ED0A06800286BD101208EE64148C06B8F
:104E3000010F01208843002810D000BF3D48C06BFF
:104E40000121090708433B49C8630846C06B0904B0
:104E50000840009000BF00BF012001903948006861
:104E6000FF2101310840002816D136480068084368
:104E700034490860FEF78AFF054606E0FEF786FF24
:104E8000401B022801D903205FE62E480068FF215D
:104E9000013108400028F1D000BFA068012808D1E6
:104EA00024484030C0690121084322494031C8618B
:104EB00020E0A06805280FD11E484030C0690421B9
:104EC00008431C494031C8610846C06901210843B4
:104ED00018494031C8610DE016484030C0694108AA
:104EE000490014484030C161C06904218843114918
:104EF0004031C86100BFA068002816D001E040E042
:104F00003EE0FEF743FF054607E0FEF73FFF401B8C
:104F10000D49884201D9032017E606484030C06990
:104F2000022108400028F0D01EE0FEF72FFF0546C2
:104F300014E00000001002400024F4007000002083
:104F4000680000200070004088130000FEF71EFF7C
:104F5000401B6249884201D90320F6E56048C069D8
:104F6000022108400028F1D10198012808D15C48AD
:104F70004038C06B01210907884359494039C8634B
:104F800000BFE06900285AD0554840388068382171
:104F9000084010287AD0E069022851D150484038A2
:104FA00000680121090688434D4940390860FEF731
:104FB000EDFE054606E0FEF7E9FE401B022801D99A
:104FC0000320C2E5464840380068012149060840F0
:104FD0000028F0D1616A206A0843A16A09020843E7
:104FE000E16A0843216B08433D494039C9683D4A9D
:104FF000114008433A494039C86008460068012119
:10500000090608433649403908600846C068090463
:10501000084333494039C860FEF7B8FE054606E04C
:10502000FEF7B4FE401B022801D903208DE52C4871
:10503000403800680121490608400028F0D04AE0C5
:10504000274840380068012109068843244940392F
:105050000860FEF79BFE054606E0FEF797FE401B44
:10506000022801D9032070E51D484038006801215D
:10507000490608400028F0D119484038C0681A494C
:10508000084017494039C86025E0FFE7E06901287A
:1050900000D15AE512484038C668B107890F206A26
:1050A000814216D170203040616A884211D17F2040
:1050B00000023040A16A090288420AD11F20400440
:1050C0003040E16A884204D1710F4907206B814268
:1050D00001D0012039E5002037E5000088130000E9
:1050E000401002408C80C11FFCFFFEEFF8B5044663
:1050F0000E46174600BF2820005D012801D102207E
:10510000F8BD01212820015500BF022129200155A9
:1051100000BFCA202168486253202168486200BF4E
:10512000206880690121890288432168886120689C
:10513000C06D042108432168C8652C48C06840211F
:105140000840002820D1FEF721FE054615E0FEF7B5
:105150001DFE401B7D21C90088420ED900BFFF20E3
:105160002168486200BF03212920015500BF0021AA
:105170002820015500BF0320C2E72068C068042131
:10518000084080080028E2D02068466120688069D5
:10519000C008C000216888612068806938432168A0
:1051A0008861134800680121C90408431049086058
:1051B000206880690121890308432168886120688B
:1051C00080690121890208432168886100BFFF20AE
:1051D0002168486200BF01212920015500BF00213C
:1051E0002820015500BF00208AE700000028004069
:1051F00080180240704710B504462068006D0421F5
:1052000008408008002807D02068C06D0843216846
:10521000C8652046FFF7EEFF01212920015510BD8A
:1052200070B504460125002C5FD02920005D0028C0
:1052300008D10021282001551120C00260602046BD
:1052400000F058F80221292001552068C06810217B
:1052500008400009002842D100BFCA2021684862E6
:1052600053202168486200BF204603F043FB0546F7
:10527000002D1DD1206880691D4908402168886182
:105280006169A0680843E1690843216889690843A6
:105290002168886121682069086120680069A18906
:1052A0000904084321680861204603F04BFB0546CA
:1052B000002D0FD120688069C000C0082168886176
:1052C000216A606A0843A169084321688969084323
:1052D0002168886100BFFF202168486200E0002546
:1052E000002D02D1012129200155284670BD000062
:1052F000BFFF8FFB10B588B004461C2101A8FBF747
:1053000046F81849206888422AD1012040040190BB
:105310000012079001A8FFF79BF9002801D0FCF7C5
:1053200065FF1148C0690121C90308430E49C861DE
:1053300000BF0D484038C06B091508430A49403981
:10534000C8630846C06B09150840009000BF00BF45
:10535000002201210220FFF71DF90220FFF708F9C2
:1053600008B010BD0028004040100240F7B582B0E0
:1053700005460C4600BF2820405D012802D10220CE
:1053800005B0F0BD01212820415500BF0221292090
:1053900041550498002809D1607810210840102850
:1053A00004D16078EF2108400A306070049800282A
:1053B00011D1E07803F090FA0704607803F08CFADA
:1053C00000020743A07803F087FA074320784003E0
:1053D000074301970AE0E078000461780902084376
:1053E000A1780843217849030843019000BFCA20EF
:1053F0002968486253202968486200BF284603F0A4
:1054000079FA0646002E08D10C490198084029680F
:105410004860284603F096FA064600BFFF20296838
:10542000486200BF002E02D101212920415500BF52
:1054300000212820415500BF3046A1E73FFFFF0073
:10544000F7B582B004460D4600BF2820005D012854
:1054500002D1022005B0F0BD01212820015500BF76
:1054600002212920015500BFCA202168486253202B
:105470002168486200BF204603F03CFA0646002E31
:105480004BD1049800281BD1206880694021084036
:10549000002800D002E00020E87000BF287803F068
:1054A0001BFA0704687803F017FA00020743A8788C
:1054B00003F012FA0743E87880050743019714E0E8
:1054C0002068806940210840002800D002E00020C8
:1054D000E87000BF28780004697809020843A978B9
:1054E0000843E97889050843019014490198084068
:1054F0002168086020688069012189048843216847
:1055000088612969E8680843216889690843216836
:105510008861204603F016FA064600BFFF20216886
:10552000486200BF002E02D101212920015500BF91
:1055300000212820015500BF30468BE77F7F7F0088
:1055400070B504460B482168C860FEF71FFC05468D
:1055500008E0FEF71BFC401B7D21C900884201D9F1
:10556000032070BD2068C068202108400028F0D0CA
:105570000020F6E75F0001000348006902210843AC
:10558000014908617047000000E000E0704700003A
:10559000F8B50446206846682068856840202840A1
:1055A000800900280FD1E807C00F0121484048407A
:1055B000002808D0402030408009002803D0204631
:1055C000E16C8847F8BD022028404008002808D038
:1055D00080203040C009002803D02046216D884734
:1055E000F0E720202840400900280AD14020284028
:1055F0008009002805D1FF2001302840000A00283A
:105600007ED02020304040090028F9D0402028409A
:10561000800900281ED05D20005D03280ED0206E7A
:1056200004210843206600BF002000902068C06865
:10563000009020688068009000BF0BE000BF002051
:1056400000902068C068009020688068009000BFCB
:1056500000BFB7E7202028404009002811D0206E65
:1056600001210843206600BF002000902068806868
:10567000009020680068402188432168086000BFCE
:1056800000BFFF2001302840000A00280BD0206E08
:1056900008210843206600BF002000902068806831
:1056A000009000BF00BF206E00283AD020684068FC
:1056B000E02188432168486001215D2001550220D6
:1056C0003040022803D0F007C00F002826D0206801
:1056D00040688008800021684860A06D00280BD0D9
:1056E0001148A16D8863A06DFDF7DAFE002803D094
:1056F000206E402108432066606D002811D000E034
:1057000010E00948616D8863606DFDF7C9FE0028EF
:1057100007D0206E40210843206602E02046FFF7B4
:1057200035FF4FE700BF4DE73D90000870B50446D8
:10573000002C01D1012070BD606A002808D1FF2132
:1057400005316068884200D105E00021E16102E096
:105750000021216161610021A1625D20005D0028BE
:1057600004D15C200155204600F066F802215D203E
:10577000015520680068402188432168086007219E
:105780000902E068884201D9002501E001252D03C6
:105790000F210902E068884206D007210902E0686B
:1057A000884201D00021A162FF21053160680840D4
:1057B00021229202A168114008430222216911406E
:1057C0000843217DC907C90F08431202A16911408E
:1057D00008433822E169114008438022216A1140C0
:1057E00008439201A16A1140084321680860A0693A
:1057F000000C042108401022616A1140084308226D
:10580000616B114008430F221202E1681140084306
:105810000121090329400843216848602068C069C4
:105820000121C90288432168C86100202066012146
:105830005D20015500207EE710B586B00446142196
:1058400001A8FAF7A4FD3C492068884233D100BF83
:105850003A480068891408433849086008460068D7
:1058600089140840009000BF00BF00BF3348403893
:10587000406B012108433149403948630846406B79
:10588000C007C00F009000BF00BF2D48019002204C
:105890000290002003900490059001A905200007C4
:1058A000FEF76EF9002201211920FEF773FE192080
:1058B000FEF75EFE3EE02349206888423AD100BFF1
:1058C0001E484038C06B091408431C494039C8635E
:1058D0000846C06B012189030840009000BF00BF4B
:1058E00000BF16484038406B022108431349403935
:1058F00048630846406B02210840009000BF00BF8B
:10590000480201900220029000200390049005209C
:10591000059001A90C48FEF733F90120C00201905F
:1059200002200290002003900490059001A90648EF
:10593000FEF726F906B010BD0030014040100240CD
:10594000021800000038004000040050FFB583B08A
:10595000044616461D46002002905D20005D012889
:1059600002D002200290D6E0FF2105316068884213
:105970000ED1A06800280BD104215D2001553346CB
:105980000095049A1146204600F0B9F907B0F0BD21
:1059900000BF5C20005D012801D10220F6E7012153
:1059A0005C20015500BFFEF7F1F907460498002876
:1059B00001D0002E02D101200290ACE004215D2034
:1059C0000155002020660498206444200653462098
:1059D00006530020A063A087E087E06420650721CC
:1059E0000902E068884207D920684068012109035C
:1059F00088432168486006E0206840680121090367
:105A00000843216848600121C903A06888420CD17D
:105A10002068006840218843216808602068006889
:105A200001218903884321680860206800684021BB
:105A30000840402804D020680068084321680860B6
:105A400007210902E068884229D823E0206880689D
:105A5000C007C00F00280DD02068007B216C0870A3
:105A6000206C401C20644620005B401E81B2462012
:105A700001530FE0FEF78AF9C01BA84202D3681C4D
:105A8000002801D1002D05D10320029001215D20C5
:105A9000015540E04620005B0028D7D128E023E0F4
:105AA00020688068C007C00F00280DD02068C0683B
:105AB000216C0880206C801C20644620005B401E06
:105AC00081B2462001530FE0FEF760F9C01BA842E7
:105AD00002D3681C002801D1002D05D103200290BB
